:107E000001C0B0C0112484B790E890936100109233
:107E10006100882361F0982F9A70923041F081FFC1
:107E200002C097EF94BF282E80E0BFD0E9C085E064
:107E30008093810082E08093C00088E18093C1003C
:107E40008EE08093C40086E08093C2008EE0ADD0C7
:107E5000219A84E025EC3CEF91E03093850020935B
:107E6000840096BBB09BFECF199AA8954091C000A4
:107E700047FD02C0815089F78CD0813461F489D0EC
:107E8000182F99D01238E9F0113811F488E001C0A8
:107E900083E078D064C0823411F484E103C0853477
:107EA00019F485E090D05BC0853539F472D0C82FC5
:107EB00070D0D82FCC0FDD1F51C0863521F484E05F
:107EC00082D080E0E6CF843661F563D062D0D82ED0
:107ED00060D0F82E00E011E05CD0F80181938F01B2
:107EE000DE12FACF68D0F5E4FF1201C0FFCF40E008
:107EF00050E063E0CE0136D07E0100E011E0F801F1
:107F0000419151918F0161E0C7012CD0F2E0EF0E59
:107F1000F11CD012F4CF40E050E065E0CE0122D059
:107F20001EC0843771F435D034D0F82E32D043D00F
:107F30008E01F80185918F0125D0FA94F110F9CFC7
:107F40000EC0853739F437D08EE11CD085E91AD0C0
:107F50008FE09FCF813511F488E027D02CD080E1CD
:107F600011D08ACFFC010A0167BFE895112407B63A
:107F700000FCFDCF667029F0452B19F481E187BF25
:107F8000E89508959091C00095FFFCCF8093C600BE
:107F900008958091C00087FFFCCF8091C00084FDD0
:107FA00001C0A8958091C6000895E0E6F0E098E150
:107FB000908380830895EDDF803219F088E0F5DF4B
:107FC000FFCF84E1DFCFCF93C82FE3DFC150E9F7C4
:047FD000CF91F1CF8D
:027FFE00000879
:0400000300007E007B
:00000001FF
